:020000040800F2
:10000000380C0020E91C00087F020008810200086B
:1000100085020008890200088D0200080000000027
:100020000000000000000000000000009102000835
:1000300093020008000000009502000897020008E3
:10004000031D0008031D0008031D0008031D000810
:10005000031D0008031D0008031D0008031D000800
:10006000031D0008031D0008031D0008031D0008F0
:10007000031D0008031D0008031D0008031D0008E0
:10008000031D0008031D0008F5190008031D0008E2
:10009000031D0008031D0008031D0008031D0008C0
:1000A000031D0008031D0008031D0008031D0008B0
:1000B000031D0008031D0008031D0008031D0008A0
:1000C000031D0008031D0008031D0008031D000890
:1000D000031D00085D1C0008150F0008031D000823
:1000E000031D0008031D0008031D0008031D000870
:1000F000031D0008031D0008031D0008031D000860
:10010000031D0008031D0008031D0008031D00084F
:10011000031D0008031D0008031D000881080008D6
:10012000031D0008031D0008031D0008031D00082F
:10013000031D0008031D0008031D0008031D00081F
:10014000031D0008031D0008031D0008031D00080F
:10015000031D0008031D0008031D0008031D0008FF
:10016000031D0008031D0008031D0008031D0008EF
:10017000031D0008031D0008031D0008031D0008DF
:10018000031D0008031D000800F002F800F03CF811
:100190000AA090E8000C82448344AAF10107DA45E2
:1001A00001D100F031F8AFF2090EBAE80F0013F0F8
:1001B000010F18BFFB1A43F0010318472459000030
:1001C00044590000103A24BF78C878C1FAD85207C1
:1001D00024BF30C830C144BF04680C6070470000C1
:1001E0000023002400250026103A28BF78C1FBD840
:1001F000520728BF30C148BF0B6070471FB503F0DE
:1002000061FD1FBD10B510BD03F029FD1146FFF7BC
:10021000F5FF00F02EF803F047FD03B4FFF7F2FFFF
:1002200003BC01F0BBFC10B54FF4A06001F07CFDF5
:10023000A82001F031FC4FF4FA3001F0BDFC00F0D1
:10024000ECFD532140F2F31000F064F900F02CF9BA
:1002500001F0C6FA01F0C6FB00F0B2F900F0A8FD0B
:1002600042F2CF0140F2E73000F0DEFA00F048FA47
:1002700010BDFFF7D8FF01E000F01DFCFCE7704760
:1002800000BFFEE700BFFEE700BFFEE700BFFEE7DE
:1002900070477047704770470CB500200190009080
:1002A0007648006840F480307449086000BF7348A5
:1002B000006800F4003000900198401C0190009804
:1002C00018B90198B0F5A04FF1D16C48006800F45E
:1002D000003010B10120009001E000200090009853
:1002E000012846D165484030006840F0805063499D
:1002F000403108606248006840F44040604908604E
:100300005E48083000685D490831086008460068AA
:1003100040F4004008600846006840F4A0500860BF
:100320005848091F0860081F006840F08070091FC6
:10033000086000BF5148006800F000700028F9D044
:1003400040F20570504908604C480830006820F0C1
:1003500003004A49083108600846006840F002007E
:10036000086000BF45480830006800F00C0008280D
:10037000F8D10CBD10B54548006840F47000434901
:1003800008603E48006840F001003C4908600020D9
:100390003A4908310860394800683D490840374902
:1003A00008603C48091D0860081F006820F4802090
:1003B000091F0860002031490C310860FFF76CFF0D
:1003C0004FF0006031498039086010BD70B50020E1
:1003D0000022022300240221284D08352D6805F053
:1003E0000C0020B1042806D0082834D107E02A4D9B
:1003F0002A4E356033E02A4D284E35602FE01F4DE0
:100400002D1D2D68C5F380541C4D2D1D2D6805F044
:100410003F0154B1224DB5FBF1F5184E361D36683B
:10042000C6F3881605FB06F209E01B4DB5FBF1F596
:10043000124E361D3668C6F3881605FB06F20F4DC0
:100440002D1D2D68C5F301456D1C6B00B2FBF3F546
:10045000124E356003E0104D104E356000BF00BFF6
:10046000064D08352D68C5F303150E4E705D0B4D16
:100470002D68C540094E356070BD0000003802404F
:100480000070004008544007003C024088ED00E046
:10049000FFFFF6FE103000240024F40000000020CE
:1004A00000127A00040000201CB50121202003F076
:1004B0004BF84FF4C060009001208DF8040000203C
:1004C0008DF8060003208DF8050000208DF8070048
:1004D00069460F4801F01EFD4FF400710C4801F011
:1004E00095FD4FF480610A4801F092FD1CBD10B5E6
:1004F0000446B4F5007F05D14FF40071044801F0C3
:1005000090FD04E04FF48061014801F08AFD10BDC8
:100510000014024030B58BB005460C460121022084
:1005200003F05BF80121084603F00EF802220621D1
:10053000214801F07AFD4020099002208DF8280022
:1005400003208DF8290000208DF82A0001208DF865
:100550002B0009A9184801F0DDFC0795A0B2ADF801
:1005600018000020ADF82000ADF81A0006A91348C5
:1005700002F06BF86020ADF804000120ADF8060031
:100580000020ADF8100001A90C4802F0F3F8082192
:100590000A4802F07CFA0121084802F0C1F8012162
:1005A000064802F0DBF80BB030BD10B5044621461A
:1005B000024802F038FA10BD00000240000400407A
:1005C0001CB50121202002F0BFFF1820009001205F
:1005D0008DF8040000208DF8060003208DF805003A
:1005E00000208DF807006946414801F093FC18216E
:1005F0003F4801F00DFD1CBD10B508213C4801F03D
:1006000005FD10213A4801F003FD10BD10B5082189
:10061000374801F0FDFC1021354801F0F7FC10BD12
:1006200010B50821324801F0F3FC1021304801F0E8
:10063000EFFC10BD10B50446002C05DDA0B2FFF79D
:10064000B4FFFFF7D9FF0DE0002C06DA614288B253
:10065000FFF7ABFFFFF7DAFF04E00020FFF7A5FF8D
:10066000FFF7DEFF10BD10B504462046462C1BD018
:1006700008DCA0F14100052837D2DFE800F01011B6
:1006800012131400582812D004DC47280DD0482833
:100690002BD10BE0592816D05A2826D11FE025E08F
:1006A00024E023E022E021E020E01FE01EE01148EA
:1006B000D0ED000A9FED101A70EE810AB0EE600ACC
:1006C00000F05BFB12E00B48D0ED000A9FED0A1A28
:1006D00070EEC10AB0EE600A00F04FFB06E09FED3D
:1006E000070A044800F049FB00E000BF00BF10BD4E
:1006F0000014024074000020000048420000000086
:1007000000B589B00121022002F01EFF07A801F008
:1007100049FCC020079002208DF8200003208DF8AE
:10072000210000208DF822008DF8230007A9394808
:1007300001F0F0FB02220621364801F076FC02228D
:100740000721344801F071FC0121042002F045FF2B
:10075000314801F0CDFE04A801F0ABFF0020ADF858
:1007600010004FF6FF7005900020ADF81800ADF8AE
:10077000120004A9284801F068FF00231A4603214B
:10078000254802F0D6FC01A802F06DFB0020ADF870
:100790000C0001A9204802F02FFB00211E4801F0A7
:1007A0009DFF01211C4802F005FC012211461A4858
:1007B00002F0ECFB0121184801F0D0FF09B000BDA8
:1007C00010B5002414482430006804B200211248F7
:1007D00001F084FF204610BD10B52DED028B0020E6
:1007E00008EE100AFFF7ECFF08EE100AB8EEC80A90
:1007F000DFED0A0A20EE200AF2EE040A20EE200ABB
:10080000DFED070A80EE201A064880ED001ABDECE5
:10081000028B10BD0004024000080040000070423E
:100820000000C344140000207FB505460C4601219A
:10083000202002F0D2FE0295ADF804400020ADF871
:100840000600ADF80C0001A91D4801F0FEFE0122D2
:1008500011461B4802F09AFB0121194801F07EFF66
:1008600037208DF8000001208DF8010003208DF85D
:10087000020001208DF80300684601F05AFA7FBD9E
:1008800010B501210E4802F098FB012813D1FFF7A3
:10089000A3FF0C4890ED000A0B4800F0FEF90A484F
:1008A00000F0FEF9084991ED020ABDEEC00A10EE13
:1008B000100AFFF7BFFE0121014802F08FFB10BDB7
:1008C00000140040140000207400002030B50346DE
:1008D0001C788C545D78541C0D559D78941C0D55D6
:1008E000DD78D41C0D5530BD11B52DED020B04463D
:1008F0000A2C00DC04B91EBD0B2C43D2DFE804F047
:1009000042060C12181E242A30363C0001224449AB
:100910006846FFF7DBFF35E0052241496846FFF7EF
:10092000D5FF2FE009223E496846FFF7CFFF29E0B7
:100930000D223B496846FFF7C9FF23E011223849E1
:100940006846FFF7C3FF1DE0152235496846FFF7EB
:10095000BDFF17E0192232496846FFF7B7FF11E0E3
:100960001D222F496846FFF7B1FF0BE021222C49D9
:100970006846FFF7ABFF05E0252229496846FFF7E7
:10098000A5FF00BF00BF00BFB5E701460A2900DC94
:1009900009B9002070472420214A10700B293CD24D
:1009A000DFE801F03B060B10151A1F24292F350034
:1009B00005201B4A50710620ECE70920184A5072A6
:1009C0000A20E7E70D20164A50730E20E2E71120B7
:1009D000134A50741220DDE71520114A5075162075
:1009E000D8E719200E4A50761A20D3E71D200C4A6A
:1009F00050771E20CEE72120094A82F821002220CC
:100A0000C8E72520064A82F825002620C2E72920CB
:100A1000034A82F829002A20BCE70020BAE7000038
:100A20003800002070B57948D0ED000AB0EE600AB9
:100A30000120FFF759FF7548D0ED010AB0EE600ABA
:100A40000220FFF751FF7148D0ED020AB0EE600AB4
:100A50000320FFF749FF6D48D0ED030AB0EE600AAE
:100A60000420FFF741FF6948D0ED040AB0EE600AA8
:100A70000520FFF739FF6548D0ED050AB0EE600AA2
:100A80000620FFF731FF0620FFF77FFF0546002411
:100A90000BE000BF5E48008800F040000028F9D05D
:100AA0005C48005D5A498880641CAC42F1DB32200E
:100AB00001F054F870BD1CB50120102356A200218E
:100AC0000090084600F0CAFC0120102355A21946E8
:100AD0000090002000F0C2FC0120102354A220212D
:100AE0000090002000F0BAFC0120102352A2302117
:100AF0000090002000F0B2FC0120102351A2002140
:100B00000090642000F0AAFC012010234DA2194699
:100B10000090642000F0A2FC012010234AA22021B2
:100B20000090642000F09AFC0120102347A230219D
:100B300000905A2000F092FC0120102344A23021A2
:100B40000090742000F08AFC304890ED000ABDEE61
:100B5000C00A10EE104A01201021CDE90010002C2F
:100B600001DB204600E060420246032300214820CA
:100B700000F0A4FC254890ED010ABDEEC00A10EE7D
:100B8000104A01201021CDE90010002C01DB204685
:100B900000E06042024603231021482000F08EFC52
:100BA0001A4890ED020ABDEEC00A10EE100A0521A7
:100BB00090FBF1F401201021CDE90010002C01DBA5
:100BC000204600E06042024603232021482000F036
:100BD00075FC012010210223CDE900101D48028878
:100BE0003021482000F06AFC012010210223CDE9C9
:100BF0000010194802883021602000F05FFC00F0EE
:100C000067FA4FF47A7000F0A9FF1CBD7400002051
:100C10000010014038000020736574706F696E74B5
:100C20003A0000006D6561737572653A000000005E
:100C3000647574793A000000626174746572793A7F
:100C400000000000722F6D00250000002E00000043
:100C500056000000180000201A00002080ED000A55
:100C6000C0ED010A80ED021AC0ED031A704780ED55
:100C7000000ADFED590AC0ED010ADFED570AC0EDA9
:100C8000020ADFED550AC0ED030ADFED530AC0ED9D
:100C9000040A80ED050A8161704780ED010A704702
:100CA00090ED040A80ED030A90ED050A80ED040A38
:100CB00090ED000AD0ED010A30EE600A80ED050AE1
:100CC00090ED050AD0ED040A30EE600A8169D1ED9D
:100CD000010A20EE200AD1ED020A90ED051A00EE7D
:100CE000810AD0ED050A90ED041AF0EE001A41EEEB
:100CF000C10A90ED031A70EE810A91ED031A01EE1C
:100D0000200AD0ED020A30EE200A80ED020A90EDB2
:100D1000020ADFED320AB4EEE00AF1EE10FA03DD6A
:100D20009FED2E0A80ED020A90ED020ADFED2C0AFB
:100D3000B4EEE00AF1EE10FA03D29FED290A80ED3D
:100D4000020A704780ED000ADFED230AC0ED010AB8
:100D5000DFED210AC0ED020ADFED1F0AC0ED030A34
:100D6000DFED1D0AC0ED040A80ED050A704790ED25
:100D7000020A704790ED000A7047DFED1A0AB4EEE0
:100D8000E00AF1EE10FA04DDDFED160AB0EE600ABB
:100D90000DE0DFED150AB4EEE00AF1EE10FA04D230
:100DA000DFED110AB0EE600A01E080ED000A704745
:100DB00000B5DFED0E1AB7EE081AF0EE0C0A9FED43
:100DC0000C0A0C48FFF74AFF9FED030A09490A483D
:100DD000FFF74DFF00BD0000000000000000FA43D7
:100DE0000000FAC30000A0430000A0C30AD7A33D3F
:100DF000CDCCCC3D640000207400002008B5262036
:100E00008DF8000001208DF801008DF802008DF8AA
:100E10000300684600F08DFF08BD00B587B00121D2
:100E2000084602F091FB0121480402F0D6FB07229C
:100E30000321404801F0F9F8072202213D4801F062
:100E4000F4F800208DF81A0001208DF81B00022014
:100E50008DF818000420059002208DF8190005A9CE
:100E6000344801F057F802208DF81800082005904A
:100E700005A9304801F04EF84FF4165001900020BB
:100E8000ADF80800ADF80A00ADF80C00ADF81000A0
:100E90000C20ADF80E0001A9274801F066F9FFF714
:100EA000ADFF012240F22551234801F09CFA0121B7
:100EB000214801F0E2F907B000BD70B504460D46C7
:100EC0002946204601F004FA00BF8021204601F0A7
:100ED000AFFA0028F9D070BD2DE9F04107460D4664
:100EE0001646002400BF295D3846FFF7E6FF641C64
:100EF000B442F8D3BDE8F08170B506460C46002533
:100F000000BF615D3046FFF7D8FF6D1C605D0028B3
:100F1000F7D170BD10B540F22551074801F09EFA97
:100F200030B1054801F0D8F9C4B22046FFF79BFB69
:100F300010BD000000000240004400400A2000BF35
:100F4000011EA0F10102D0B2FAD1704710B52021E4
:100F5000FB4801F05DF84FF48051FA4801F056F873
:100F6000FFF7ECFF2021F64801F050F810BD10B556
:100F70002021F34801F04AF8FFF7E0FF4FF48051D9
:100F8000F04801F043F8FFF7D9FF4FF48051ED48E6
:100F900001F03EF8FFF7D2FF10BD70B50446002502
:100FA0001DE004F0800020B12021E54801F02EF87A
:100FB00003E02021E24801F02BF8FFF7BFFF4FF4D8
:100FC0008051E04801F022F8FFF7B8FF4FF480515C
:100FD000DC4801F01DF86006040E681CC5B2082D3F
:100FE000DFDB70BD10B52021D54801F00FF84FF4BC
:100FF0008051D44801F00AF8FFF7A0FF2021D04823
:1010000001F006F8FFF79AFF4FF48051CD4800F049
:10101000FFFFFFF793FF10BD70B505460C46FFF7C5
:10102000E1FF7820FFF7B9FFFFF7A1FF1CB14020D7
:10103000FFF7B3FF02E00020FFF7AFFFFFF797FFD6
:101040002846FFF7AAFFFFF792FFFFF77FFF70BD6B
:1010500010B504461CB90021A620FFF7DDFF012CC6
:1010600003D10021A720FFF7D7FF10BD10B504461C
:101070003CB90021C820FFF7CFFF0021A120FFF7D6
:10108000CBFF012C07D10021C020FFF7C5FF0021B5
:10109000A020FFF7C1FF10BD10B500218D20FFF784
:1010A000BBFF00211420FFF7B7FF0021AF20FFF79F
:1010B000B3FF10BD10B500218D20FFF7ADFF00215B
:1010C0001020FFF7A9FF0021AE20FFF7A5FF10BDFC
:1010D00070B500242BE004F1B001C8B20021FFF785
:1010E0009BFF00210846FFF797FF00211020FFF724
:1010F00093FFFFF777FF7820FFF74FFFFFF737FFEA
:101100004020FFF74AFFFFF732FF002509E08E4934
:1011100001EBC501085DFFF740FFFFF728FF681CE2
:10112000C5B2802DF3DBFFF711FF601CC4B2082CA1
:10113000D1DB70BD70B500240CE0002506E0002076
:10114000814901EBC5010855681CC5B2802DF6DB4D
:10115000601CC4B2082CF0DBFFF7BAFF70BDF0B51D
:1011600014460B46CF1701EB5777C7F3C702CF17CB
:1011700001EB5777FF10A1EBC707FEB20123B34085
:10118000DDB24CB1704B03EBC0039B5C2B436E4F45
:1011900007EBC007BB541AE06B4B03EBC0039B5C2F
:1011A000DB43694F07EBC007BB54674B03EBC0033E
:1011B0009B5C2B43644F07EBC007BB54624B03EBB4
:1011C000C0039B5CDB43604F07EBC007BB54F0BD23
:1011D0002DE9FF4F84B081468A4600200290834665
:1011E0000698A0EB09040798A0EB0A06CDF8049036
:1011F000CDF800A0002C01DD012705E00CB9002787
:1012000002E04FF0FF376442002E02DD4FF001088C
:1012100006E016B94FF0000802E04FF0FF386642D2
:10122000B44201DD254600E03546002003901EE073
:10123000009AD1B2019AD0B2119AFFF790FF0298AA
:1012400020440290B3440298A84205DD0298401B56
:101250000290019838440190AB4504DDABEB050BDF
:101260000098404400900398401C80B20390691C91
:1012700003988842DCDB08B0BDE8F08F2DE9F0432D
:1012800006460F4690460025444643E03A1BD1B23D
:101290007219D0B20122FFF762FF3A1BD1B2721B62
:1012A000D0B20122FFF75BFF3A19D1B2721BD0B264
:1012B0000122FFF754FF3A19D1B27219D0B20122BC
:1012C000FFF74DFF7A19D1B23219D0B20122FFF7E0
:1012D00046FF7A1BD1B23219D0B20122FFF73FFF8D
:1012E0007A1BD1B2321BD0B20122FFF738FF7A1934
:1012F000D1B2321BD0B20122FFF731FF6D1C05FBCA
:1013000005F004FB040008FB1809B9F1000F01DD2A
:10131000641E6D1E6000604308FB08F18842B5DA68
:10132000BDE8F0832DE9FE4F0746884692461C46ED
:101330000197CDF80080082C08D14FF0060925E070
:10134000000C024000180240900000202046E317E5
:1013500004EB5373DB1021464FEAE47C04EB5C7C26
:101360004FEAEC0CA4EBCC0CBCF1000F02D04FF018
:10137000010C01E04FF0000C6344224604EBD27CE8
:101380004FEA6C0C03FB0CF303F0FF09AAF12000F9
:10139000C6B200255EE0082C07D106EB4600FE49E8
:1013A00001EB400010F805B01DE00C2C07D106EB56
:1013B0004600FA4901EB800010F805B013E0102C4C
:1013C00005D1F74800EB061010F805B00BE0182C1B
:1013D00007D106EBC600F34901EB800010F805B019
:1013E00001E0BDE8FE8F002002901CE00BF0010040
:1013F00028B1414638460C9AFFF7B1FE09E00C9837
:1014000008B9012000E00020024641463846FFF7B7
:10141000A6FE4FEA6B0B08F1010000F0FF080298EE
:10142000401CC0B2029002980828DFDB781CC7B2CB
:10143000082C0BD004EBD4714A100199791A8A4216
:1014400004D1019F00980830C0B20090DDF8008000
:10145000681CC5B24D459EDB00BFC2E72DE9F841CF
:1014600006460F4614461D46DDF81C8013E0CDF8F5
:10147000008022782B4639463046FFF753FF082D6F
:1014800002D1B01DC6B205E0284605EBD07106EBCF
:101490006101CEB2641C2078202802DB20787E28EF
:1014A000E5DDBDE8F88110B50246012000E05043BB
:1014B0000B1EA1F10104E1B2F9D110BD2DE9FF4FDE
:1014C00082B0064691461F46DDE90F4A4FF0000BF9
:1014D000082C01D14FF0020B002530E0781B401E94
:1014E000C1B20A20FFF7DFFFB9FBF0F00A21B0FB21
:1014F000F1F201FB1208B8F1000F0ED104EBD47128
:101500000BEB610101FB0561C8B223463022CDE936
:1015100000A40399FFF706FF0FE004EBD4710BEB77
:10152000610101FB0561C8B208F13001CAB223466E
:10153000CDE900A40399FFF7F5FE681CC5B2BD42D2
:10154000CCDB06B0BDE8F08F2DE9FC4F074688469E
:1015500016461C46BB46CDF804802046E21704EB35
:101560005272D2102146E31704EB5373DB10A4EB45
:10157000C3030BB1012300E000231A44624392B27B
:101580000092002555E0102C05D1874800EB46104D
:1015900010F805A01BE0182C07D106EBC600834904
:1015A00001EBC00010F805A011E0202C05D1804807
:1015B00000EBC61010F805A009E0402C05D17D48CD
:1015C00000EB462010F805A001E0BDE8FC8F4FF0CD
:1015D00000091CE00AF0010028B1414638460B9A88
:1015E000FFF7BDFD09E00B9808B9012000E00020DD
:1015F000024641463846FFF7B2FD4FEA6A0A08F153
:10160000010000F0FF0809F1010000F0FF09B9F145
:10161000080FDFDB781CC7B2A7EB0B00A04204D198
:101620005F4601980830C0B20190DDF80480681C64
:1016300085B200988542A6DB00BFC6E708B58046A4
:1016400089469246002600274BE04FB910233246C8
:1016500018218020CDF800A0FFF776FF701CC6B2DD
:10166000464522D14FF0000B1AE0012410E000257E
:101670000AE0514800EBC400415D601E4E4A02EB97
:10168000C0004155681CC5B2082DF2DB601CC4B215
:10169000902CECDBFFF71CFD0BF1010000F0FF0BC1
:1016A0004FEA09105845E0DC0026781CC7B2102F1D
:1016B00000D10027012410E000250AE03E4800EB9D
:1016C000C400415D601E3C4A02EBC0004155681CED
:1016D000C5B2082DF2DB601CC4B2902CECDBFFF726
:1016E000F7FCB2E72DE9FF4F05460E4617461C46AC
:1016F000DDF838904FF0000A0095B3462046E21717
:1017000004EB5272D2102146E31704EB5373DB1043
:10171000A4EBC3030BB1012300E000231A44D4B2AD
:101720004FF0000858E0002003904EE00D9810F8AC
:101730000A0002900AF101001FFA80FA00200190CD
:101740001DE0029800F0010028B14A4631462846C3
:10175000FFF705FD0AE0B9F1000F01D1012000E01B
:101760000020024631462846FFF7F9FC0298401057
:101770000290701CC6B20198401CC0B20190019842
:101780000828DEDB681CC5B20098281AB84217D1B9
:10179000009D0BF1080011E0CE3C0008F63E000869
:1017A0006A4300085A490008B6560008165800084F
:1017B0005E580008DE5800089000002000F0FF0B83
:1017C0005E460398401CC0B203900398B842ADDB5C
:1017D00008F1010000F0FF08A045A4DBBDE8FF8F81
:1017E0001CB50121482001F0AFFE2020009001200F
:1017F0008DF804008DF8060003208DF80500012007
:101800008DF807006946454800F084FB4FF480508E
:10181000009001208DF804008DF8060003208DF85B
:10182000050001208DF8070069463D4800F072FB75
:10183000C82000F093F90021AE20FFF7EDFB002156
:101840000846FFF7E9FB00211020FFF7E5FB002128
:101850004020FFF7E1FB00218120FFF7DDFB0021A5
:10186000CF20FFF7D9FB0021A120FFF7D5FB0021F6
:10187000C820FFF7D1FB0021A620FFF7CDFB0021F8
:10188000A820FFF7C9FB00213F20FFF7C5FB00217F
:10189000D320FFF7C1FB00210846FFF7BDFB002165
:1018A000D520FFF7B9FB00218020FFF7B5FB002111
:1018B000D920FFF7B1FB0021F120FFF7ADFB00219C
:1018C000DA20FFF7A9FB00211220FFF7A5FB00217A
:1018D000DB20FFF7A1FB00214020FFF79DFB00214B
:1018E0002020FFF799FB00210220FFF795FB002144
:1018F0008D20FFF791FB00211420FFF78DFB0021C5
:10190000A420FFF789FB0021A620FFF785FBFFF746
:1019100011FC0021AF20FFF77FFB1CBD000C024033
:10192000001802401CB50121084601F00DFE2020E0
:10193000009003208DF8040000208DF80700694610
:101940004E4800F0E7FA1CBD00B58BB0012108023B
:1019500001F054FE002001904FF4803002900020EE
:1019600003904FF47060049001A801F07BFF05A87C
:1019700001F06EFF002005908DF8180001208DF811
:101980001900002007900890099001208DF8280088
:1019900005A93B4801F037FF032301220521384800
:1019A00001F0B7FF012240F20521354802F012F99B
:1019B0000121334801F06DFF314802F006F80BB009
:1019C00000BD08B512208DF8000001208DF801003F
:1019D00002208DF8020001208DF80300684600F017
:1019E000A8F908BD10B5FFF79DFFFFF7ADFFFFF7A2
:1019F000E8FF10BD10B52DED028B40F20521204807
:101A000002F010F9012831D11D4802F01AF80446FD
:101A100000EE104AB8EE400ADFED1A0A20EE200A66
:101A20009FED191AC0EE010AB2EE060A20EE800AF6
:101A3000B0EE408ABCEEC80A10EE100A13490880C6
:101A40000846008800EE100AB8EE400A38EE400A58
:101A5000B0EE408A9FED0E0A28EE000AB0EE408AF2
:101A6000BCEEC80A10EE100A0A49088040F20521AF
:101A7000034802F0EAF8BDEC028B10BD0000024002
:101A800000200140333353400000804518000020FF
:101A90000000C8421A00002010B504466FF0040090
:101AA00000F094F9E11704EB5171C1F3C701394A11
:101AB00011701046007800EB4001C1EBC0104FF6EA
:101AC000FF7101EAC0003449088010BD0146314A67
:101AD00012784A434FF0E0235A6100229A611A4675
:101AE000126942F001021A6100BF4FF0E022106952
:101AF00000F001021AB100F48032002AF5D04FF054
:101B0000E022126922F001024FF0E0231A61002264
:101B10009A6170470146204A12884A434FF0E023F9
:101B20005A6100229A611A46126942F001021A6152
:101B300000BF4FF0E022106900F001021AB100F47A
:101B40008032002AF5D04FF0E022126922F0010223
:101B50004FF0E0231A6100229A61704770B5044685
:101B60004FF4077094FBF0F0C6B24FF4077094FB8B
:101B7000F0F100FB114085B205E04FF40770FFF76C
:101B8000C9FF701EC6B2002EF7D115B12846FFF767
:101B9000C1FF70BD1C0000201E000020014600BFD8
:101BA000704700BF4C4A128802F04002002AF9D068
:101BB000C2B2494B9A80704710B588B004460121E3
:101BC000084601F0C1FC0121102001F017FD072299
:101BD0000921424800F029FA07220A213F4800F073
:101BE00024FA4FF4C060069002208DF81C008DF896
:101BF0001D0000208DF81E0001208DF81F0006A991
:101C0000364800F087F902940020ADF80C00ADF8DA
:101C10000E00ADF81000ADF814000C20ADF8120065
:101C200002A92D4800F0A1FA01212B4800F025FB64
:101C3000012240F22551284800F0D5FB25208DF8DF
:101C4000040003208DF805008DF8060001208DF8B2
:101C5000070001A800F06DF808B010BD10B540F203
:101C600025511D4800F0FAFB10B31B4800F034FB6F
:101C7000C4B21B48008800F40040C8B91848008866
:101C800000F4804060B10A2C03D000201449088081
:101C900020E01348008840F400401149088019E012
:101CA0000D2C06D10E48008840F480400C49088075
:101CB00010E00B480088C0F30D000A490C54084896
:101CC0000088401C0649088008460088C72801DDB6
:101CD0000020088010BD00000010014000000240FC
:101CE00024000020100500200948804709480047CB
:101CF000FEE7FEE7FEE7FEE7FEE7FEE7FEE7FEE7BC
:101D0000FEE7FEE704480549054A064B7047000018
:101D1000750300088901000838060020380C0020EF
:101D2000380800203808002032490143324A116047
:101D3000704770B5002100230F22C4781CB32E4CCD
:101D4000246804F4E064C4F5E064C4F30721C1F13D
:101D50000404E3B20A4144789C40E1B28478144020
:101D600021430C07210E254C05786155047804F0B9
:101D70001F050124AC4005786D11AD0005F1E0258B
:101D8000C5F8004109E0047804F01F050124AC40C7
:101D90001B4D0678761145F8264070BD194A0A4059
:101DA0000243154B1B1F1A60704739B1124A121DAE
:101DB00012680243104B1B1D1A6006E00E4A121DEA
:101DC000126882430C4B1B1D1A607047042808D10F
:101DD0004FF0E021096941F004014FF0E022116168
:101DE00007E04FF0E021096921F004014FF0E02203
:101DF000116170470000FA050CED00E000E400E01E
:101E000080E100E080FFFF1F10B50446984884423F
:101E100008D10121084601F002FC0021012001F057
:101E2000FEFB76E09348844208D10121022001F0B4
:101E3000F6FB0021022001F0F2FB6AE08E488442AA
:101E400008D10121042001F0EAFB0021042001F067
:101E5000E6FB5EE08948844208D10121082001F0B8
:101E6000DEFB0021082001F0DAFB52E084488442C6
:101E700008D10121102001F0D2FB0021102001F037
:101E8000CEFB46E07F48844208D10121202001F0AA
:101E9000C6FB0021202001F0C2FB3AE07A488442D0
:101EA00008D10121402001F0BAFB0021402001F0BF
:101EB000B6FB2EE07548844208D10121802001F054
:101EC000AEFB0021802001F0AAFB22E07048844292
:101ED00008D10121801501F0A2FB0021A01501F01D
:101EE0009EFB16E06B48844208D10121401501F0A9
:101EF00096FB0021601501F092FB0AE066488442DF
:101F000007D10121001501F08AFB0021201501F005
:101F100086FB10BDF0B50A4600210023002400BF57
:101F20003DE0012505FA01F3156805EA03049C422A
:101F300034D105684F000326BE40B54305601579CE
:101F40004E00B5400668354305601579012D02D075
:101F50001579022D16D185684F000326BE40B54382
:101F6000856055794E00B540866835438560456883
:101F700001268E40B5434560456896798E40B6B2DD
:101F800035434560C5684F000326BE40B543C56074
:101F9000D5794E00B540C6683543C560491C102947
:101FA000BFD3F0BD4FF6FF71016000210171417197
:101FB0008171C171704708B54FF480320092009A68
:101FC0000A430092009AC261C161009AC261C2696B
:101FD0000092C269009208BD0246002013690B40BE
:101FE0000BB1012000E0002070470146086980B273
:101FF00070470246002053690B400BB1012000E0FE
:10200000002070470146486980B2704701837047DD
:10201000418370470AB1018300E041837047416109
:10202000704742694A4042617047F0B5002300247E
:102030004D07ED0E02FA05F3CE1000F1200555F81C
:1020400026504E07F70E0F26BE40B543CF1000F1C5
:10205000200646F82750CE1000F1200555F82650EE
:1020600045EA0304CE1000F1200545F82640F0BDF6
:10207000000002400004024000080240000C024040
:10208000001002400014024000180240001C0240F0
:1020900000200240002402400028024010B50446FF
:1020A000FA48844208D10121102001F0FCFA0021F5
:1020B000102001F0F8FA57E0F548844209D10121D7
:1020C000480401F0DFFA00214FF4003001F0DAFAA1
:1020D0004AE0F048844209D10121880401F0D2FA93
:1020E00000214FF4802001F0CDFA3DE0EA4884421F
:1020F00009D10121C80401F0C5FA00214FF40020E4
:1021000001F0C0FA30E0E548844209D10121080518
:1021100001F0B8FA00214FF4801001F0B3FA23E087
:10212000DF48844208D10121202001F0BCFA0021BF
:10213000202001F0B8FA17E0DA48844209D10121E1
:10214000880701F09FFA00214FF0804001F09AFAD1
:102150000AE0D548844207D10121400501F092FAF6
:102160000021600501F08EFA10BD2DE9FF470546FC
:102170000E460024A14600BFA046B08900B100BFB2
:102180002C8A24F44054F08804432C82AC8941F218
:102190000C608443B0883189084371890843044343
:1021A000AC81AC8A24F44074B0890443AC826846A4
:1021B00001F0F9F8B548854202D0B948854202D10C
:1021C000DDF80C9001E0DDF80890A88900F40040EB
:1021D00040B109EBC90000EB091031684900B0FBC0
:1021E000F1F707E009EBC90000EB0910316889003D
:1021F000B0FBF1F76420B7FBF0F004012009642183
:1022000001FB1078A88900F4004040B1322000EBB7
:10221000C800B0FBF1F000F00700044308E03220F2
:1022200000EB08106421B0FBF1F000F00F00044354
:102230002C81BDE8FF874FF4165101600021818099
:10224000C18001810C21418100218181704710B53D
:1022500002460020108A20F470600B884C882343CB
:102260008C882343CC8823431843108210BD00215F
:10227000018041808180C180704721B1828942F410
:102280000052828104E082894DF6FF731A408281F8
:102290007047028B02F47F420283028B0A4302835F
:1022A000704721B1828942F40042828103E0828931
:1022B000C2F30E028281704721B1828A42F4006229
:1022C000828204E0828A4FF2FF731A408282704752
:1022D000C1F308028280704701468888C0F3080075
:1022E0007047028A4FF6F0731A400282028A0A434C
:1022F0000282704721B1828942F00202828104E0A9
:1023000082894FF6FD731A408281704782894FF2AD
:10231000FF731A40828182890A4382817047028A50
:102320004FF6DF731A400282028A0A430282704724
:1023300021B1028A42F48042028204E0028A4BF612
:10234000FF731A4002827047818941F00101818147
:10235000704721B1828A42F00802828204E0828AB8
:102360004FF6F7731A4082827047028BD2B2028313
:10237000028B42EA01220283704721B1828A42F035
:102380002002828204E0828A4FF6DF731A40828242
:10239000704721B1828A42F01002828204E0828A70
:1023A0004FF6EF731A4082827047828A4FF6FB73B2
:1023B0001A408282828A0A438282704721B1828ACD
:1023C00042F00202828204E0828A4FF6FD731A40D4
:1023D000828270471AB1838A0B43838202E0838A28
:1023E0008B4383827047F0B5034600240026002506
:1023F000002040F66A17B94200D100BF1846C1F369
:10240000421401F01F06012707FA06F5012C01D13D
:102410000C3004E0022C01D1103000E014301AB16D
:1024200007682F43076002E00768AF430760F0BD0D
:1024300002460020B1F5007F00D100BF13880B4099
:102440000BB1012000E00020704701F40072B2F5EA
:10245000007F00D100BFCA430280704770B50246BA
:10246000002400230025002040F66A16B14200D166
:1024700000BFC1F3421501F01F03012606FA03F362
:10248000012D13D19689334017E000000010014060
:102490000044004000480040004C00400050004014
:1024A0000014014000780040007C0040022D02D161
:1024B000168A334001E0968A33400C12012606FA50
:1024C00004F41688344013B10CB1012000E0002060
:1024D00070BD10B50022002340F66A14A14200D15D
:1024E00000BF0A1201249440A3B2DC43048010BD53
:1024F00010B50446FE48844208D10121084601F087
:10250000D2F80021012001F0CEF89DE0B4F1804F17
:1025100008D10121084601F0B5F80021012001F0A1
:10252000B1F891E0F348844208D10121022001F082
:10253000A9F80021022001F0A5F885E0EE488442C8
:1025400008D10121042001F09DF80021042001F0B0
:1025500099F879E0E948844208D10121082001F086
:1025600091F80021082001F08DF86DE0E4488442E4
:1025700008D10121102001F085F80021102001F080
:1025800081F861E0DF48844208D10121202001F078
:1025900079F80021202001F075F855E0DA488442EE
:1025A00008D10121022001F07EF80021022001F073
:1025B0007AF849E0D548844209D10121080401F0A4
:1025C00072F800214FF4803001F06DF83CE0D04803
:1025D000844209D10121480401F065F800214FF43B
:1025E000003001F060F82FE0CA48844209D101218F
:1025F000880401F058F800214FF4802001F053F8CE
:1026000022E0C548844208D10121402001F03AF877
:102610000021402001F036F816E0C048844208D17D
:102620000121802001F02EF80021802001F02AF8FD
:102630000AE0BB48844207D10121801501F022F84D
:102640000021A01501F01EF810BD00220288A84B41
:1026500098420ED0AC4B98420BD0B0F1804F08D0CE
:10266000A44B984205D0A44B984202D0A34B984269
:1026700004D14FF68F731A404B881A43A04B9842EF
:1026800007D0A04B984204D04FF6FF431A400B8965
:102690001A4302804B68C3620B880385944B9842AF
:1026A00002D0994B984201D18B7A03860123838211
:1026B00070474FF0FF31416000210180018141806E
:1026C000817270470185828270470A460021018825
:1026D0004FF68F7319401143018070474162704774
:1026E000C16270470146486A70470146088D7047CD
:1026F00021B1028842F00202028004E002884FF613
:10270000FD731A400280704721B1028842F0040232
:10271000028004E002884FF6FB731A400280704783
:1027200021B1028842F08002028004E002884FF664
:102730007F731A400280704702884FF6F7731A4081
:10274000028002880A430280704702884FF6FF43E6
:102750001A40028002880A430280704721B1028831
:1027600042F00102028004E002884FF6FE731A4034
:102770000280704770B5002400220023058C4FF6BC
:10278000FE7635400584028C8388048B4FF68F7566
:102790002C40B51E2C400D882C43751E2A408D8977
:1027A0002A434D882A43524DA84202D0564DA84292
:1027B00013D14FF6F7752A40CD892A434FF6FB75A2
:1027C0002A408D882A434FF6FF652B404FF6FF5570
:1027D0002B400D8A2B434D8A2B43838004838D68C5
:1027E0004563028470BD70B5002400220023058C6F
:1027F0004FF6EF7635400584028C8388048B48F6CB
:10280000FF752C404FF6FF452C400D884FF6FF76A4
:1028100006EA05252C434FF6DF752A408D8906EA26
:1028200005152A434D8806EA05152A43304DA8426E
:1028300002D0354DA8421DD14FF67F752A40CD8973
:102840004FF6FF7606EA05152A434FF6BF752A4074
:102850008D8806EA05152A434FF6FF352B404FF2C7
:10286000FF752B400D8A06EA85052B434D8A06EA43
:1028700085052B43838004838D688563028470BD46
:1028800070B5002400220023058C4FF6FF6635400A
:102890000584028C8388848B4FF68F752C404FF60D
:1028A000FC752C400D882C434FF6FF552A408D892E
:1028B0004FF6FF7606EA05252A434D8806EA0525E8
:1028C0002A430B4DA84202D00F4DA84238D14FF2F7
:1028D000FF752A40CD894FF6FF7606EA05252A4383
:1028E0004FF6FF352A408D8806EA05252A4319E070
:1028F000000001400004004000080040000C0040BF
:10290000001000400014004000040140004001405D
:10291000004401400048014000180040001C0040F5
:10292000002000404EF6FF752B404DF6FF752B4002
:102930000D8A06EA05152B434D8A06EA05152B4339
:10294000838084838D68C563028470BD70B5002266
:1029500000230024058C4EF6FF7635400584038C59
:102960008488828B48F6FF752A404FF6FF452A403F
:102970000D884FF6FF7606EA05252A434DF6FF75CA
:102980002B408D8906EA05352B434D8806EA05352F
:102990002B43FE4DA84202D0FD4DA84208D14BF674
:1029A000FF752C400D8A4FF6FF7606EA85152C43FD
:1029B000848082838D680564038470BD002101805A
:1029C0004180818081608181C18101824182704723
:1029D00070B50346002000241846183001258D40AC
:1029E000ACB21D8CA5431D8409B108290AD100EBA6
:1029F000610005684FF68F76354005600568154320
:102A000005600FE00D1FC5F34E052844056848F624
:102A1000FF763540056005684FF6FF7606EA022628
:102A20003543056070BD4163704781637047C16382
:102A30007047016470470A460021018B4FF68F737F
:102A400019401143018370470A460021018B48F663
:102A5000FF7319404FF6FF7303EA02231943018302
:102A600070470A460021818B4FF68F73194011433E
:102A7000818370470A460021818B48F6FF73194015
:102A80004FF6FF7303EA02231943818370470A4616
:102A90000021018B4FF6F7731940114301837047F2
:102AA0000A460021018B4FF2FF7319404FF6FF7366
:102AB00003EA02231943018370470A460021818BF0
:102AC0004FF6F77319401143818370470A4600217E
:102AD000818B4FF2FF7319404FF6FF7303EA022315
:102AE0001943818370470A460021018B4FF6FB731F
:102AF00019401143018370470A460021018B4FF6AC
:102B0000FF3319404FF6FF7303EA02231943018391
:102B100070470A460021818B4FF6FB731940114321
:102B2000818370470A460021818B4FF6FF3319409D
:102B30004FF6FF7303EA02231943818370470A4665
:102B40000021018B4FF67F731940114301837047B9
:102B50000A460021018BC1F30E014FF6FF7303EA11
:102B600002231943018370470A460021818B4FF6E7
:102B70007F7319401143818370470A460021818B7E
:102B8000C1F30E014FF6FF7303EA02231943818359
:102B900070470A460021018C4FF6FD73194011431E
:102BA000018470470A460021018C4FF6F7731940E3
:102BB0001143018470470A460021018C4FF6DF73F0
:102BC00019404FF6FF7303EA02131943018470475B
:102BD0000A460021018C4FF67F7319404FF6FF73B0
:102BE00003EA02131943018470470A460021018C4D
:102BF0004FF6FF5319404FF6FF7303EA02231943C0
:102C0000018470470A460021018C4FF2FF7319407E
:102C10004FF6FF7303EA02231943018470470A4603
:102C20000021018C4DF6FF7319404FF6FF7303EA44
:102C3000023319430184704730B5002301248C40CE
:102C4000A3B2048C9C430484048C02FA01F5ADB257
:102C50002C43048430BD30B5002304248C40A3B23F
:102C6000048C9C430484048C02FA01F5ADB22C431D
:102C7000048430BD828B4FF2FF331A408283828BF3
:102C80004FF6FF7303EA01231A4382837047F0B5BE
:102C90000C461546002100220026078C4EF6FF7CCC
:102CA00007EA0C070784818B028C4FF6FF7707EA4F
:102CB000043640F6FF4739404FF6FF7707EA05270D
:102CC00039434FF6FF7707EA0337394345F6FF7775
:102CD0003A4046F480573A4381830284F0BD828BA8
:102CE0004FF6F3731A408283828B0A4382837047C4
:102CF000F0B50C461546002100220026078C4FF641
:102D0000FF6C07EA0C070784818B028C4FF6FF7774
:102D100007EA04264FF60C7739404FF6FF7707EAAB
:102D200003172F4339434FF2FF573A4046F4807759
:102D30003A4381830284F0BD028B4FF2FF331A4085
:102D40000283028B4FF6FF7303EA01231A430283C7
:102D50007047F0B50C461546002100220026078C6E
:102D60004FF6EF7C07EA0C070784018B028C4FF6C5
:102D7000FF7707EA041640F6FF4739404FF6FF7722
:102D800007EA033739434FF6FF7703E000000140BD
:102D90000004014007EA052739434FF65F773A40C0
:102DA00046F010073A4301830284F0BD028B4FF6D0
:102DB000F3731A400283028B0A4302837047F0B513
:102DC0000C46154600210022068C4FF6FE773E4049
:102DD0000684018B028C4FF60C7631407E1C06EA8D
:102DE00003162E4331434FF6F576324044F0010688
:102DF000324301830284F0BD70B505460C4620883D
:102E000050B92389A28861882846FFF7D8FFE18856
:102E10002846FFF7CBFF25E0208804280AD1238924
:102E2000A28861882846FFF794FFE1882846FFF7CB
:102E300083FF17E0208808280AD12389A2886188A7
:102E40002846FFF755FFE1882846FFF748FF09E0CD
:102E50002389A28861882846FFF719FFE188284660
:102E6000FFF708FF70BD00210180418001218180B2
:102E70000021C180018170472DE9F04105460C46D3
:102E800000260127608808B9022600E00026A088F5
:102E9000012801D1022700E001272088A0B9238959
:102EA000A28861882846FFF78AFFE1882846FFF755
:102EB0007DFF23893A4631462846FFF74AFFE188DD
:102EC0002846FFF739FF13E02389A2886188284646
:102ED000FFF73FFFE1882846FFF72EFF23893A4698
:102EE00031462846FFF76BFFE1882846FFF75EFF73
:102EF000BDE8F0810146486B70470146886B70471A
:102F00000146C86B70470146086C70470A884B88B9
:102F10001A438B881A43CB881A430B891A434B896F
:102F20001A438B891A43A0F844207047002101807E
:102F300041808180C180018141818181704731B1AF
:102F4000B0F8442042F40042A0F8442005E0B0F874
:102F50004420C2F30E02A0F84420704721B18288B9
:102F600042F00402828004E082884FF6FB731A402C
:102F70008280704721B1828842F00102828004E0A1
:102F800082884FF6FE731A40828070471AB1838997
:102F90000B43838102E083898B4383817047818265
:102FA000704702460020138A0B400BB1012000E05D
:102FB00000207047CA430282704730B502460020A5
:102FC00000230024158A05EA0103958905EA010416
:102FD00013B10CB1012000E0002030BDCA430282D1
:102FE000704741EA0203A0F8483070471AB183895C
:102FF0000B43838102E083898B438381704721B136
:10300000828842F00802828004E082884FF6F773DB
:103010001A408280704701894FF6F8721140018191
:1030200070470A46002101894FF68F7319401143FA
:103030000181704730B504460D4629462046FFF70A
:10304000F0FF208940F00700208130BD2DE9F041DC
:1030500004460D4616461F46602D06D13B4601220A
:1030600031462046FFF775FE05E03B46012231461A
:103070002046FFF7A4FE29462046FFF7D2FF20890D
:1030800040F007002081BDE8F08130B50C460021FA
:103090000189C9B24FF6FF7505EA0325154325439B
:1030A0002943018130BD2DE9F04105460E46174602
:1030B0009846002443463A4631462846FFF7E5FF46
:1030C0002C894FF6F870044044F007044FF68F70D7
:1030D000044044F070042C81BDE8F081F0B5044652
:1030E0000D4616461F463B46324629462046FFF708
:1030F000CCFF208940F480402081F0BD82884FF6CB
:103100008F731A40828082880A43828070470289C6
:103110004FF6F8731A40028102890A430281704710
:1031200002894FF67F731A40028102890A430281A5
:103130007047F0B50C4615461E46002100220023BC
:103140000189028B038C4FF6F877394021434FF603
:10315000FC473A4040F201173A434FF6DD773B40D7
:103160004FF6FF7707EA06172F433B43018102839F
:103170000384F0BD21B1828842F08002828004E0A5
:1031800082884FF67F731A4082807047A0F85010F3
:1031900070470000F948006840F00100F7490860F6
:1031A0000020F64908310860F4480068F4490840F6
:1031B000F2490860F348091D0860F348EF4984317B
:1031C0000860F0481038091D0860EC48006820F4D9
:1031D0008020EA4908600020E8490C310860E7498E
:1031E0008C31086070470021E44A921C117011462E
:1031F0000870704710B501460022002300204A11D4
:10320000012A02D1DD4C236808E0022A03D1DB4CFD
:103210007034236802E0D94C7434236801F01F0233
:10322000012494401C400CB1012000E0002010BD9E
:1032300038B5002000900024002500BF3120FFF7A2
:10324000D9FF05460098401C00900098B0F5A04FAB
:1032500001D0002DF2D03120FFF7CCFF08B10124BE
:1032600000E00024204638BD01460020C34A106813
:1032700020F0F80040EAC10010607047C3490860C0
:1032800070470021BD4A703211701170012802D0C0
:1032900004280AD104E00121B84A7032117005E017
:1032A0000521B64A7032117000E000BF00BF7047C0
:1032B000B7490860704770B5049C41EA8215012641
:1032C000C6EB530645EA0645054345EA0465AB4EA1
:1032D000361D356070BDAD4908667047820142EA0F
:1032E0000172A64B84331A607047A84988667047FC
:1032F00010B5830143EA016343EA02739F4C8834AB
:10330000236010BDA14908677047A049C864704791
:1033100002460020994B0833186820F0EC6042EA1E
:1033200001031843954B083318607047024600208C
:10333000924B0833186820F0784042EA01031843A2
:103340008E4B083318607047014600208B4A0832C4
:10335000106820F003000843106070478748083069
:10336000006800F00C00704701460020834A0832D4
:10337000106820F0F00008431060704701460020FC
:103380007E4A0832106820F4E0500843106070470D
:1033900001460020794A0832106820F4604040EA73
:1033A000C10010607047F0B5002100220024022502
:1033B00000260223714F08373F6807F00C0121B146
:1033C000042905D0082937D105E0724F076036E09F
:1033D000714F076033E0694F3F1D3F68C7F3805668
:1033E000664F3F1D3F6807F03F036EB16A4FB7FB62
:1033F000F3F7DFF888C10CF1040CDCF800C0CCF363
:10340000881C07FB0CF40CE0624FB7FBF3F7DFF806
:103410006CC10CF1040CDCF800C0CCF3881C07FB79
:103420000CF4564F3F1D3F68C7F301477F1C7D00DA
:10343000B4FBF5F7076002E0564F076000BF00BF1E
:103440004E4F08373F6807F0F0010909534F7A5C87
:103450000768D7404760494F08373F6807F4E05195
:10346000890A4E4F7A5C4768D7408760434F0837D8
:103470003F6807F46041490B484F7A5C4768D74082
:10348000C760F0BD002100F44072B2F5407F0AD160
:103490003A4A0832116821F4F811414A02401143B6
:1034A000364A08321160354A70321268C0F30B0395
:1034B0001A43324B70331A607047354944390860FB
:1034C0007047334940390860704736490860704793
:1034D00001460020294A8C32106820F01F004A1E45
:1034E0001043264A8C321060704701460020234A60
:1034F0008C32106820F4F8504A1E40EA02201F4A1D
:103500008C3210607047014600201C4A8C321068D3
:1035100020F4401008431060704701460020174A0D
:103520008C32106820F44000084310607047014658
:103530000020124A8C32106820F44030084310609A
:10354000704719490860704739B10C4A3032126827
:1035500002430A4B30331A6006E0084A30321268E0
:103560008243064B30331A607047F9B1034A343254
:1035700012680243014B34331A601CE000380240E9
:10358000FFFFF6EA10300024003000200000474220
:10359000800E47420024F40000127A00260000202A
:1035A000FFFCFF0F5C014742E01147428F4A12685F
:1035B00082438E4B1A60704739B18C4A121D1268D3
:1035C00002438A4B1B1D1A6006E0884A121D1268CE
:1035D0008243864B1B1D1A60704739B1834A0C32F7
:1035E00012680243814B0C331A6006E07F4A0C32AA
:1035F000126882437D4B0C331A60704739B17B4AA5
:10360000103212680243794B10331A6006E0774A91
:10361000103212688243754B10331A60704739B10B
:10362000724A243A12680243704B243B1A6006E047
:103630006E4A243A126882436C4B243B1A607047EE
:1036400039B16A4A203A12680243684B203B1A603B
:1036500006E0664A203A12688243644B203B1A60B7
:10366000704739B1614A1C3A126802435F4B1C3BF8
:103670001A6006E05D4A1C3A126882435B4B1C3BB1
:103680001A60704739B1594A143A12680243574BCD
:10369000143B1A6006E0554A143A12688243534BB1
:1036A000143B1A60704739B1504A103A126802430D
:1036B0004E4B103B1A6006E04C4A103A12688243A7
:1036C0004A4B103B1A60704739B1484A1C321268A5
:1036D0000243464B1C331A6006E0444A1C3212680F
:1036E0008243424B1C331A60704739B13F4A203243
:1036F000126802433D4B20331A6006E03B4A2032F9
:1037000012688243394B20331A60704739B1374A07
:10371000243212680243354B24331A6006E0334AE0
:10372000243212688243314B24331A60704739B116
:103730002E4A2C32126802432C4B2C331A6006E0BE
:103740002A4A2C3212688243284B2C331A60704765
:1037500039B1264A303212680243244B30331A60A2
:1037600006E0224A303212688243204B30331A601E
:103770007047012808D11D493C31096841F0080112
:103780001A4A3C32116007E018493C31096821F0BF
:103790000801164A3C321160704739B1134A273A82
:1037A00012780243114B273B1A7006E00F4A273A62
:1037B000127882430D4B273B1A7070470B484030FC
:1037C000006840F080700949403108607047014648
:1037D0000020064A283A12680A400AB1012000E097
:1037E000002070470149263908707047343802407C
:1037F00010B501210802FFF756FF00214FF4807039
:10380000FFF751FF10BD30B502460020002350687D
:10381000F84C20400D790C6844EA052420435060A0
:103820009068F54C2040D1E903542C438D682C431B
:103830004D7944EA450420439060D06A20F470003A
:103840000C7D641EE4B2234340EA0350D06230BDD5
:1038500000210160017141718160C160016101213C
:10386000017570470021E54A1168E54A1140D0E929
:1038700000231A4383681A43C3681A431143E14A79
:10388000C2F8041370470021016041608160C1608B
:10389000704721B1826842F00102826003E08268D1
:1038A00022F00102826070470A4600214168D64B2F
:1038B00019401143416070474162826270470A4675
:1038C0000021416821F01F0111434160704738B168
:1038D000CA49096841F40001CA4AC2F8041306E063
:1038E000C649096821F40001C64AC2F804137047AA
:1038F00038B1C249096841F48001C24AC2F80413D0
:1039000006E0BE49096821F48001BE4AC2F80413EA
:103910007047F0B504460D4600200021092D11DD49
:10392000E068A5F10A0606EB4607072606FA07F146
:103930008843A5F10A0606EB460603FA06F108439A
:10394000E0600CE0206905EB4507072606FA07F161
:10395000884305EB450603FA06F108432061072A70
:103960000FDA606B561E06EB86071F2606FA07F174
:103970008843561E06EB860605FA06F10843606387
:1039800022E00D2A0FDA206BD61F06EB86071F26D2
:1039900006FA07F18843D61F06EB860605FA06F1FC
:1039A0000843206310E0E06AA2F10D0606EB8607EB
:1039B0001F2606FA07F18843A2F10D0606EB8606DC
:1039C00005FA06F10843E062F0BD816841F08041EC
:1039D00081607047014600208A6802F080420AB187
:1039E000012000E00020704721B1826842F480622B
:1039F000826003E0826822F480628260704721B1B5
:103A0000826842F00202826003E0826822F00202D1
:103A10008260704710B50A4600210023416821F4F6
:103A20006041531E41EA4331416010BD21B14268FB
:103A300042F40062426003E0426822F400624260A5
:103A400070470146C86C80B270476C48001D006822
:103A5000704721B1826842F48072826003E082681C
:103A600022F480728260704721B1826842F4007251
:103A7000826003E0826822F400728260704738B18D
:103A80005E49096841F400515E4AC2F8041306E039
:103A90005A49096821F400515A4AC2F80413704780
:103AA000F0B504461546002000220026092911DD44
:103AB000E068A1F10A0707EB470C072707FA0CF2A9
:103AC0009043A1F10A0707EB470703FA07F21043F7
:103AD000E0600CE0206901EB410C072707FA0CF2CB
:103AE000904301EB410703FA07F210432061A06BFA
:103AF000C0F30156EF1C06F1010CA7EB0C0707EB16
:103B0000870C1F2707FA0CF29043EF1C06F1010CFB
:103B1000A7EB0C0707EB870701FA07F21043A06336
:103B2000F0BD10B50A4600210023816B21F440113D
:103B3000531E41EA0351816310BD08B50023009371
:103B40000090009B0B440093009B1A6008BD0A463E
:103B50000021816821F470211143816070470A4679
:103B60000021816821F44011114381607047816810
:103B700041F4800181607047014600208A6802F4A8
:103B800080020AB1012000E00020704721B14268A4
:103B900042F48062426003E0426822F48062426044
:103BA000704721B1426842F48052426003E04268AB
:103BB00022F480524260704708B50246002000900F
:103BC000009201F12800009B1844009000980068C2
:103BD00080B208BD10B50B460021D9B2012404FA09
:103BE00001F11AB144680C43446002E044688C431C
:103BF000446010BDFFFEFFFCFDF7FFC00423014041
:103C0000E030FCFF00200140FFFD3FFF02460020A6
:103C100013680B400BB1012000E000207047CA433D
:103C20000260704770B502460020002300240B128A
:103C3000556801268E4005EA060415681D4015B139
:103C40000CB1012000E0002070BD00220A12D34315
:103C500003607047704770477047704770477546FC
:103C600000F02CF8AE4605006946534620F00700E8
:103C7000854618B020B5FEF745F8BDE820404FF066
:103C800000064FF000074FF000084FF0000B21F046
:103C90000701AC46ACE8C009ACE8C009ACE8C00913
:103CA000ACE8C0098D46704710B50446AFF30080FC
:103CB0002046BDE81040FCF7B0BA0000004870474D
:103CC000D80500204FF04070E1EE100A7047000068
:103CD000000000000000002F0000000007000700A7
:103CE00000147F147F1400242A7F2A1200626408C3
:103CF0001323003649552250000005030000000040
:103D00001C224100000041221C000014083E08143F
:103D10000008083E0808000000A06000000808082D
:103D20000808000060600000002010080402003E47
:103D30005149453E0000427F4000004261514946E2
:103D4000002141454B31001814127F1000274545D2
:103D50004539003C4A4949300001710905030036E4
:103D60004949493600064949291E000036360000F7
:103D700000005636000000081422410000141414FC
:103D800014140000412214080002015109060032F7
:103D90004959513E007C1211127C007F4949493635
:103DA000003E41414122007F4141221C007F4949A0
:103DB0004941007F09090901003E4149497A007FD4
:103DC0000808087F0000417F4100002040413F017A
:103DD000007F08142241007F40404040007F020CD9
:103DE000027F007F0408107F003E4141413E007F7A
:103DF00009090906003E4151215E007F0919294643
:103E00000046494949310001017F0101003F40401E
:103E1000403F001F2040201F003F4038403F0063CC
:103E200014081463000708700807006151494543EE
:103E300000007F41410000552A552A5500004141AC
:103E40007F000004020102040040404040400000A6
:103E500001020400002054545478007F4844443840
:103E600000384444442000384444487F00385454C7
:103E7000541800087E0901020018A4A4A47C007F45
:103E8000080404780000447D4000004080847D00E8
:103E9000007F102844000000417F4000007C04188F
:103EA0000478007C0804047800384444443800FC5A
:103EB000242424180018242418FC007C0804040876
:103EC00000485454542000043F444020003C4040EB
:103ED000207C001C2040201C003C4030403C004422
:103EE00028102844001CA0A0A07C004464544C442A
:103EF000141414141414000000000000000000004A
:103F000000000000FC000000000002000000000CA7
:103F1000020C020000000000000090D0BCD0BC9059
:103F20000003000300001824FE448C000302070273
:103F300001001824D8B04C80000300010201C038F1
:103F4000E438E0000102020102020806000000005D
:103F5000000000000000000000F804020000000162
:103F60000204000204F80000000402010000906056
:103F7000F86090000000010000002020FC202000DC
:103F80000000010000000000000000000806000022
:103F90000000202020202000000000000000000081
:103FA000000000000002000000000080601C020011
:103FB000040300000000F8040404F80001020202F7
:103FC00001000008FC000000000203020000188449
:103FD0004424180003020202020008042424D8002A
:103FE00001020202010040B088FC800000000003D2
:103FF00002003C242424C400010202020100F8242F
:10400000242CC0000102020201000C04E41C040084
:10401000000003000000D8242424D800010202027A
:10402000010038444444F80000030202010000008B
:10403000100000000000020000000000200000004E
:10404000000006000000002050880402000000006C
:10405000010290909090900000000000000000028B
:10406000048850200002010000001804C424180035
:10407000000002000000F804E494F80001020202CB
:10408000020000E09CF0800002030000030204FC38
:104090002424D800020302020100F80404040C00E6
:1040A00001020202010004FC0404F80002030202FF
:1040B000010004FC24740C0002030202030004FC4F
:1040C00024740C00020302000000F0080444CC40F9
:1040D00000010202010004FC2020FC040203000095
:1040E00003020404FC0404000202030202000004B0
:1040F00004FC040406040403000004FC24D00C04A3
:1041000002030200030204FC040000000203020296
:104110000203FC3CC03CFC0003000300030004FC61
:1041200030C4FC04020302000300F8040404F80095
:1041300001020202010004FC242418000203020010
:104140000000F8848404F80001020207050004FC62
:1041500024649800020302000302182424448C0003
:104160000302020201000C04FC040C000002030222
:10417000000004FC0000FC04000102020100047CB9
:1041800080E01C040000030000001CE03CE01C0078
:10419000000300030000049C609C04000203000371
:1041A0000200041CE01C04000002030200000C8456
:1041B000641C04000203020203000000FE0202006D
:1041C000000007040400000E30C0000000000001E1
:1041D0000200000202FE00000004040700000004C8
:1041E00002040000000000000000000000000000C9
:1041F000080808080808000002000000000000008D
:1042000000000040A0A0C00000010202030204FC64
:104210002020C00000030202010000C02020600036
:1042200000010202020000C02024FC000001020282
:10423000030200C0A0A0C000000102020200002092
:10424000F82424040002030202000040A0A0602021
:1042500000070A0A0A0404FC2020C000020302002E
:1042600003020020E400000000020302000000003E
:1042700020E4000008080807000004FC80E020207B
:104280000203020003020404FC0000000202030215
:104290000200E020E020C00003000300030020E053
:1042A0002020C00002030200030200C02020C00042
:1042B00000010202010020E02020C000080F0A02D5
:1042C000010000C02020E0000001020A0F0820E0E9
:1042D000402020000203020000000060A0A0200097
:1042E0000002020203000020F8200000000001028A
:1042F000020020E00020E00000010202030220E0B2
:10430000208060200000030100006080E0806000E9
:10431000000300030000206080602000020300030F
:10432000020020E020806020080807010000002033
:10433000A0602000000203020200000020DE020054
:10434000000000070400000000FF00000000000F54
:1043500000000002DE20000000040700000002014F
:104360000204040200000000000000000000000041
:1043700000000000000000000000000000F8000045
:104380000000000000333000000000100C06100C8C
:104390000600000000000000000040C07840C07827
:1043A0004000043F04043F040400007088FC08300F
:1043B0000000001820FF211E0000F008F000E018A7
:1043C000000000211C031E211E0000F00888700060
:1043D00000001E2123241927211010160E000000B2
:1043E00000000000000000000000000000E01804D1
:1043F0000200000000071820400000020418E0003E
:1044000000000040201807000000404080F080407D
:1044100040000202010F01020200000000F0000053
:1044200000000101011F0101010000000000000067
:10443000000080B0700000000000000000000000DC
:104440000000000101010101010100000000000065
:10445000000000303000000000000000000080601C
:104460001804006018060100000000E010080810A1
:10447000E000000F102020100F00001010F80000C6
:1044800000000020203F202000000070080808885D
:10449000700000302824222130000030088888482D
:1044A00030000018202020110E000000C02010F85D
:1044B000000000070424243F240000F8088888082E
:1044C00008000019212020110E0000E01088881833
:1044D0000000000F112020110E0000380808C83815
:1044E00008000000003F00000000007088080888F5
:1044F0007000001C222121221C0000E0100808107E
:10450000E0000000312222110F00000000C0C000B6
:1045100000000000003030000000000000800000BB
:1045200000000000806000000000000080402010BB
:1045300008000001020408102000404040404040B4
:104540004000040404040404040000081020408017
:10455000000000201008040201000070480808084C
:10456000F0000000003036010000C030C828E8101C
:10457000E0000718272423140B000000C038E000D7
:104580000000203C23020227382008F88888887021
:104590000000203F202020110E00C030080808082D
:1045A0003800071820202010080008F80808081014
:1045B000E000203F202020100F0008F88888E8083D
:1045C0001000203F20202320180008F88888E808E1
:1045D0001000203F200003000000C0300808083809
:1045E000000007182020221E020008F8080000081A
:1045F000F808203F210101213F20000808F80808A1
:1046000000000020203F2020000000000808F808DB
:104610000800C08080807F00000008F888C028184B
:104620000800203F20012638200008F8080000007C
:104630000000203F20202020300008F8F800F8F883
:104640000800203F003F003F200008F830C000086D
:10465000F808203F200007183F00E0100808081065
:10466000E0000F10202020100F0008F808080808AC
:10467000F000203F210101010000E01008080810AF
:10468000E0000F18242438504F0008F888888888E4
:104690007000203F2000030C3020007088080808BC
:1046A00038000038202121221C00180808F80808CA
:1046B00018000000203F2000000008F80800000853
:1046C000F808001F202020201F000878880000C85C
:1046D0003808000007380E010000F80800F800084C
:1046E000F800033C0700073C030008186880806856
:1046F000180820302C03032C30200838C800C83894
:1047000008000000203F2000000010080808C838FA
:1047100008002038262120201800000000FE020298
:1047200002000000007F40404000000C30C000004C
:104730000000000000010638C00000020202FE0076
:104740000000004040407F00000000000402020220
:104750000400000000000000000000000000000055
:104760000000808080808080808000020204000041
:104770000000000000000000000000008080808039
:1047800000000019242222223F2008F80080800027
:104790000000003F112020110E00000000808080EA
:1047A0000000000E112020201100000000808088F1
:1047B000F800000E112020103F2000008080808033
:1047C0000000001F222222221300008080F088882F
:1047D00088180020203F202000000000808080807A
:1047E0008000006B94949493600008F800808080AF
:1047F0000000203F210000203F200080989800000A
:1048000000000020203F2020000000000080989839
:10481000000000C08080807F000008F800008080D9
:104820008000203F24022D302000000808F80000FE
:1048300000000020203F20200000808080808080B9
:104840008000203F20003F20003F8080008080804B
:104850000000203F210000203F2000008080808059
:104860000000001F202020201F008080008080008A
:10487000000080FFA12020110E0000000080808039
:104880008000000E112020A0FF80808080008080AA
:10489000800020203F2120000100000080808080D7
:1048A00080000033242424241900008080E08080CC
:1048B00000000000001F2020000080800000008019
:1048C0008000001F202020103F208080800000807A
:1048D000808000010E30080601008080008000808A
:1048E00080800F300C030C300F000080800080802F
:1048F00080000020312E0E3120008080800000805A
:10490000808080818E701806010000808080808009
:1049100080000021302C2221300000000000807C2B
:10492000020200000000003F404000000000FF00C5
:10493000000000000000FF0000000002027C800078
:1049400000000040403F000000000006010102029C
:10495000040400000000000000000000000000004F
:104960000000000000000000000000000000000047
:104970000000000000000000000000000000000037
:10498000000000F0F0F00000000000000000000156
:104990007F010000000000000000001C1C1C000043
:1049A000000000008060301C8C60301C0C00000097
:1049B00000000000000000000000000000000000F7
:1049C000000000000000000000E00000000000E027
:1049D00000000086E69F86868686E69F86000001A8
:1049E0001F01010101011F010100000080C06020C2
:1049F000F820E0C00000000003070C18FF70E18100
:104A000000000000070F10107F100F0700008060EB
:104A1000206080000000E02000000F3020309F70F8
:104A2000DC371030C0000000100E0300071810180B
:104A300007000000C02020E0C0000000000080E06F
:104A40001F38E88703C43C040000070F1810100B40
:104A5000070D1010080000808C4C3800000000008A
:104A60000000000000000000000000000000000046
:104A70000000000000000000000000000000000036
:104A800080E0300804000000000000FEFF0100008C
:104A90000000000000000000030F18204000000488
:104AA0000830E0800000000000000000000001FF6E
:104AB000FE0000000000004020180F03000000006E
:104AC0000000000000000000C000000000000042E4
:104AD00066663C18FF183C66664200000000000055
:104AE0000300000000000000000000008000000043
:104AF0000000001010101010FF1010101010000017
:104B000000000000030000000000000000000000A2
:104B10000000000000000000000000000000000095
:104B2000000000808C4C38000000000000000000F5
:104B30000000000000000000000000101010101025
:104B40001010101010000000000000000000000015
:104B50000000000000000000000000000000000055
:104B60000000000000000000000000001C1C1C00F1
:104B70000000000000000000000000000000E0381D
:104B80000C000000000080701C03000000000060AA
:104B9000380E0100000000000000000080C060200E
:104BA0002060C080000000FEFF010000000001FF47
:104BB000FE000001070E181010180E07010000007B
:104BC000808080C0E000000000000000000000FFC6
:104BD000FF000000000000001010101F1F10101038
:104BE00000000080402020202060C08000000003E2
:104BF0000300804020381F070000001C1A191818F5
:104C00001818181F00000080C020202060C08000FD
:104C10000000000303001010182FE78000000007B9
:104C20000F10101010180F07000000000000000007
:104C3000C0E0F000000000C0B088868180FFFF80E7
:104C40008000000000000010101F1F101000000066
:104C5000E060606060606060000000003F10080875
:104C60000818F0E0000000070B101010101C0F03D4
:104C70000000000080C040202020E0C0000000FCB8
:104C8000FF211008080818F0E0000001070C1810B8
:104C90001010080F03000000C0E06060606060E07A
:104CA0006000000003000000E018070000000000A2
:104CB0000000001F1F00000000000080C0602020D6
:104CC000202060C080000087EF2C1818303068CF9B
:104CD000830000070F0810101010180F07000000C5
:104CE000C0C020202020C0800000001F3F60404046
:104CF000402010FFFE0000000C1C101010080F03D5
:104D000000000000000000000000000000000000A3
:104D10000000000E0E0E0000000000000000001C4D
:104D20001C1C00000000000000000000000000004B
:104D3000000000000000000C0C000000000000005B
:104D400000000058380000000000000000000000D3
:104D50000080402010000000102844820100000064
:104D60000000000000000000010204081000000024
:104D7000000000000000000000000084848484849F
:104D8000848484848400000000000000000000008F
:104D90000000000010204080000000000000000023
:104DA00000000000018244281000000010080402E6
:104DB00001000000000000C020201010101030E0A2
:104DC000C0000003030000F010080C0703000000FF
:104DD00000001C1C1C0000000000000000C040601F
:104DE00020202040C00000FCFF01F00E03C1FE03A4
:104DF000807F0001070E0811111011090402000044
:104E0000000080E0E000000000000000807C4340E3
:104E1000477FF880000010181F1000000000131FCB
:104E20001C1020E0E02020202060C080000000FF57
:104E3000FF10101010182FE78000101F1F10101007
:104E40001010180F0700000080C0402020202060B4
:104E5000E00000FCFF010000000000000100000174
:104E6000070E181010100804030020E0E020202096
:104E70002040C080000000FFFF000000000001FF94
:104E8000FE00101F1F10101018080E07010020E070
:104E9000E020202020202060800000FFFF10101064
:104EA000107C00000000101F1F10101010101018B0
:104EB000060020E0E020202020206060800000FF2D
:104EC000FF101010107C00000100101F1F100000C8
:104ED000000000000000000080C06020202040E0B2
:104EE000000000FCFF0100004040C0C14040000144
:104EF000070E181010100F0F000020E0E020000037
:104F0000000020E0E02000FFFF101010101010FF44
:104F1000FF00101F1F1000000000101F1F100000D6
:104F2000202020E0E020202000000000000000FF02
:104F3000FF000000000000001010101F1F101010D4
:104F4000000000000000202020E0E02020200000E1
:104F50000000000000FFFF0000000060E080808093
:104F6000C07F3F00000020E0E020000020A0602083
:104F7000200000FFFF30187CE3C000000000101F7D
:104F80001F10000001131F1C181020E0E02000007B
:104F900000000000000000FFFF0000000000000013
:104FA0000000101F1F10101010101018060020E035
:104FB000E0E000000000E0E0E02000FF013FFEC074
:104FC000E01E01FFFF00101F1000031F0300101F51
:104FD0001F1020E0E0C0000000000020E02000FFE3
:104FE0000003071C78E08000FF00101F1000000085
:104FF0000000030F1F00000080C060202060C08000
:10500000000000FEFF010000000000FFFE000001A4
:10501000070E181010180C07010020E0E0202020D7
:10502000202060C0800000FFFF2020202020301FB3
:105030000F00101F1F100000000000000000000003
:1050400080C060202060C080000000FEFF010000E2
:10505000000000FFFE000001070E1111133C7C67E9
:10506000210020E0E0202020202060C0800000FF00
:10507000FF101030F0D0080F0700101F1F100000A5
:1050800000030F1C10100080C06020202020404032
:10509000E00000070F0C1818303060E08100001F9E
:1050A0000C0810101010180F07008060202020E05E
:1050B000E020202060800100000000FFFF000000D1
:1050C000000100000000101F1F100000000020E081
:1050D000E020000000000020E02000FFFF000000B2
:1050E00000000000FF0000070F181010101010083B
:1050F00007002060E0E02000000020E060200000C9
:10510000077FF88000807C03000000000000071F7C
:105110001C070000000020E0E02000E0E02000206C
:10512000E0200007FFF8E01FFFFCE01F0000000088
:10513000031F0300011F03000000002060E0A00027
:105140000020E0602000000000038F7CF8C6010012
:1051500000000010181E130001171F181000206017
:10516000E0E02000000020E06020000001073EF8A1
:10517000E0180700000000000010101F1F101000B2
:10518000000000806020202020A0E0E0200000003F
:105190000000C0F03E0F0300000000101C1F17109D
:1051A0001010101806000000000000FC04040404A5
:1051B00004000000000000FF0000000000000000EC
:1051C0000000007F404040404000000010E0000030
:1051D00000000000000000000000031C60800000D0
:1051E000000000000000000000030C7080000000C0
:1051F0000404040404FC000000000000000000009F
:1052000000FF00000000000040404040407F0000E0
:10521000000000000010080C040C08100000000042
:10522000000000000000000000000000000000007E
:10523000000000000000000000000000000000006E
:10524000000000000000000000000000000080805E
:10525000808080808080808080800000000404083E
:105260000800000000000000000000000000000036
:10527000000000000000000000000000000000002E
:1052800000000000000000000000000098D8446406
:105290002424FCF80000000F1F18101010081F1F16
:1052A00010180020E0F000000000000000000000E6
:1052B000FFFF180804040CF8F00000001F0F18107E
:1052C0001010180F03000000000000000000000094
:1052D000000000E0F8180404043C3800000000035B
:1052E0000F0C101010100806000000000000000055
:1052F0000020E0F0000000E0F81C04040408FFFFB8
:10530000000000030F18101010081F0F0800000005
:10531000000000000000000000000000E0F8484429
:1053200044444C7870000000030F0C181010100853
:1053300004000000000080C0602020E0C0000004E5
:105340000404FFFF040404040000000010101F1FE9
:10535000101010000000000000000000000000001D
:105360000000000070F88C04048CF874040C0070C9
:1053700076CF8D8D8D89C87870000020E0F0000018
:105380000000000000000000FFFF08040404FCF817
:10539000000000101F1F100000101F1F1000000051
:1053A000000000606000000000000000040404FC35
:1053B000FC000000000000001010101F1F10101053
:1053C000000000000000000000606000000000001D
:1053D0000000040404FCFC0000000000C0C0808049
:1053E000C07F3F0000000020E0F00000000000004F
:1053F00000000000FFFF80C0F41C04040000001047
:105400001F1F1100031F1C1010000000202020E0AF
:10541000F000000000000000000000FFFF0000009E
:10542000000000001010101F1F10101000000000DE
:105430000000000000000000000004FCFC0804FC68
:10544000FC0804FCFC00101F1F10001F1F10001F91
:105450001F10000000000000000000000000000419
:10546000FCFC08080404FCF8000000101F1F1000DA
:1054700000101F1F100000000000000000000000CE
:10548000000000E0F0180C04040C18F0E000000329
:105490000F0C101010100C0F030000000000000093
:1054A0000000000000000004FCFC080404040CF8E8
:1054B000F0000080FFFF889010101C0F0300000018
:1054C0000000000000000000000000E0F81C0404E0
:1054D0000408F8FC000000030F1810109088FFFF6C
:1054E0008000000000000000000000000000040434
:1054F00004FCFC100804040C0C001010101F1F10FA
:10550000101000000000000000000000000000007B
:10551000000000003078CCC48484840C1C0000009F
:105520001E1810101011190F06000000000000C016
:1055300000000000000000040404FFFF0404040055
:105540000000000000000F1F1010100C00000000F1
:10555000000000000000000000000004FCFE00004D
:105560000004FCFE000000000F1F181010081F0FA1
:10557000080000000000000000000000000000041F
:105580000C3CFCC40000C43C0C0400000000010FF3
:105590001E0E0100000000000000000000000000DE
:1055A0000000043CFCC400E47CFC84807C0400001B
:1055B000071F070000071F07000000000000000091
:1055C0000000000000000004041C7CE4C0341C0443
:1055D00004000010101C1601131F1C1810000000FE
:1055E0000000000000000000000000040C3CFCC4AF
:1055F00000C43C0404000000C080C1370E0100005C
:10560000000000000000000000000000000000009A
:105610001C0404C4F47C1C0400000000101C1F17B0
:10562000111010180E0000000000000000F80C041B
:10563000000000000000001028EF00000000000043
:1056400000000000003F604000000000000000007B
:10565000FF0000000000000000000000FF0000004C
:105660000000000000000000FF000000000000003B
:10567000040CF80000000000000000000000EF280B
:10568000100000000000000040603F00000000002B
:105690000000001806020204081020203008000054
:1056A00000000000000000000000000000000000FA
:1056B0000000000000000000F010101010FF10109B
:1056C0001010F000000000000F04040404FF0404A4
:1056D00004040F0000004040405F55555575555576
:1056E000555F404040000040200F09498979090971
:1056F000090F2040000000FE02424ACA4A4ACA4A34
:105700004A4202FE000000FF40504C4340404F50D0
:10571000505C40FF00000000F888888888FF888877
:105720008888F800000000001F080808087F8888A3
:1057300088889F80F00080828282828282E2A292A8
:105740008A8682808000000000000040807F000088
:10575000000000000000101010FF109008888888DA
:10576000FF88888808000444827F01808040432CA1
:105770001028468180000010101010D030FF30D06B
:10578000121C1010000010080402010000FF0000AD
:1057900001020408100004040484E43C27242424A7
:1057A00024E40404040004020100FF090909094972
:1057B000897F0000000000FE225A8600FE9292922D
:1057C0009292FE00000000FF04080700FF40200343
:1057D0000C14224140000080402018068000071869
:1057E0002040800000000100207028262120202475
:1057F000386000010100001012929292929292126F
:105800001202FE0000000000003F101010103F00C8
:1058100040807F000000000000C080808080808089
:1058200080FC84808080808080C0C00000000000F8
:1058300000FF7F404040404040FF404040404040EB
:1058400040FF7F000000000000000000000000009A
:10585000007F700000000000000000000000000059
:1058600000000000000000000000000000FCF80044
:105870000000000000000000000000000000000028
:105880000000FFFE020202020202020202FFFF0209
:105890000202020202020202FF03000000000000F6
:1058A00000001F1F040404040404040404FFFF0494
:1058B00004040404040404041F00000000000000A9
:1058C000000000000000000000000000007F3F001A
:1058D00000000000000000000000000000000000C8
:1058E00000000000000000000000000000000000B8
:1058F0000000000000000000000000F8F8F0F07068
:105900002000000000000000000000000000000077
:105910000000000000000000000000000000000087
:1059200000000000000080000000000000000000F7
:105930000000000000000000000000FFFFFFFF006B
:105940000000000000000000000000000000000057
:105950000000808000000000000000000000000047
:1059600000000000000000FFFFFE06060606060617
:105970000606060606060606060606FFFFFFFF06E3
:1059800006060606060606060606060606060606B7
:1059900006FFFFFFFF0702000000000000000000FC
:1059A00000000000000000FFFFFF000000000000FA
:1059B0000000000000000000000000FFFFFFFF00EB
:1059C00000000000000000000000000000000000D7
:1059D00000FFFFFFFF0000000000000000000000CB
:1059E00000000000000000FFFFFF1818181818182A
:1059F0001818181818181818181818FFFFFFFF188B
:105A00001818181818181818181818181818181816
:105A100018FFFFFFFF000000000000000000000072
:105A20000000000000000201010000000000000072
:105A30000000000000000000000000FFFFFFFF006A
:105A40000000000000000000000000000000000056
:105A50000001010000000000000000000000000044
:105A60000000000000000000000000000000000036
:105A70000000000000000000000000FFFFFFFF002A
:105A80000000000000000000000000000000000016
:105A90000000000000000000000000000000000006
:105AA00000000000000000000000000000000000F6
:105AB00000000000000000000000001F1F0F0F008A
:105AC00000000000000000000000000000000000D6
:105AD00000000000000000000000000000000000C6
